:03000000020E4BA2
:0C0E4B00787FE4F6D8FD758131020E922C
:10114A00323332313133333600323332313132399C
:0B115A003000323332313133303100CD
:07124700022E00000130003F
:0D1208005389F0438901C28CC28DC2A92216
:0A122100E4F58CF58AC28DD28C2210
:03124F00C28C222C
:08123500AF8CEFFEAD8AEDFF66
:01123D00228E
:100A9B00750B0C7B09E4FD7F1C120DB8750B0C7BE1
:100AAB000AE4FD7F2A120DB8750B0C7B0BE4FD7F5E
:100ABB0038120DB8750B0C7B0CE4FD7F44120DB88E
:100ACB00750B0C7B0DE4FD7F50120DB8750B0C7B79
:100ADB000EE4FD7F5C120DB8750B0C7B0FE4FD7FF4
:100AEB0068120DB8750B0CE4FB7D02FF120DB87587
:100AFB000B0C7B017D027F0E120DB8750B0C7B026C
:100B0B007D027F1C120DB87BFF7A11794A750D0897
:100B1B007D027F3C120FC8750B0C7B037D04E4FF39
:100B2B00120DB8750B0C7B047D047F0E120DB8757E
:100B3B000B0C7B057D047F1C120DB87BFF7A1179A2
:100B4B0053750D087D047F3C120FC8750B0C7B068B
:100B5B007D06E4FF120DB8750B0C7B077D067F0E2F
:100B6B00120DB8750B0C7B087D067F1C120DB87B24
:100B7B00FF7A11795C750D087D067F3C120FC87FDB
:090B8B00D07E071211650210E68C
:0C121500D2967FD07E07121165C296228F
:011252002279
:011253002278
:1011B000E4F592F59153B2FB53B1FB121208D2B28F
:0711C000C296C29702125211
:10107300E4F508F50920B2187F14FE12116520B2B9
:1010830014E5094508700EF508750901FE7F012274
:08109300E4F508F509E4FEFF95
:01109B002232
:10104700E4F50BF50AF509F5081212151212538F7C
:101057000B8E0A8D098C087F0A7E00121165121209
:0B1067002112124F1212358E0C8F0D5B
:01107200225B
:10112B001211B0120C61E4FF12117FE4FF12109C3C
:0F113B00120A9B121073EF4E60F912104780F4E6
:100003000000000000000000002F000000000700B7
:10001300070000147F147F1400242A7F2A12006231
:1000230064081323003649552250000005030000DD
:1000330000001C224100000041221C000014083E65
:1000430008140008083E0808000000A0600000082B
:10005300080808080000606000000020100804027F
:10006300003E5149453E0000427F4000004261513D
:100073004946002141454B31001814127F100027D7
:1000830045454539003C4A4949300001710905039A
:1000930000364949493600064949291E00003636CB
:1000A300000000005636000000081422410000142E
:1000B300141414140000412214080002015109060B
:1000C30000324959513E007C1211127C007F49498C
:1000D3004936003E41414122007F4141221C007FBD
:1000E30049494941007F09090901003E4149497ACB
:1000F300007F0808087F0000417F41000020404145
:100103003F01007F08142241007F40404040007FB0
:10011300020C027F007F0408107F003E4141413EF4
:10012300007F09090906003E4151215E007F09193C
:1001330029460046494949310001017F0101003F39
:100143004040403F001F2040201F003F4038403FB9
:10015300006314081463000708700807006151491D
:10016300454300007F41410000552A552A550000B0
:1001730041417F000004020102040040404040402E
:10018300000001020400002054545478007F4844C6
:10019300443800384444442000384444487F0038FD
:1001A3005454541800087E0901020018A4A4A47C26
:1001B300007F080404780000447D400000408084F0
:1001C3007D00007F102844000000417F4000007C38
:1001D30004180478007C0804047800384444443844
:1001E30000FC242424180018242418FC007C080490
:1001F300040800485454542000043F444020003C69
:100203004040207C001C2040201C003C4030403CEF
:10021300004428102844001CA0A0A07C004464547F
:100223004C441414141414140000000000000000C3
:100233000000000000000000000000F800000000C3
:10024300000000333000000000100C06100C060004
:10025300000000000000000040C07840C07840006B
:10026300043F04043F040400007088FC08300000CD
:10027300001820FF211E0000F008F000E018000025
:1002830000211C031E211E0000F0088870000000DE
:100293001E2123241927211010160E000000000030
:1002A3000000000000000000000000E0180402004D
:1002B300000000071820400000020418E0000000BE
:1002C3000040201807000000404080F080404000BC
:1002D3000202010F01020200000000F00000000012
:1002E3000101011F010101000000000000000000E6
:1002F30080B070000000000000000000000000005B
:1003030000010101010101010000000000000000E3
:10031300003030000000000000000000806018047E
:10032300006018060100000000E010080810E0005B
:10033300000F102020100F00001010F80000000024
:100343000020203F2020000000700808088870006B
:1003530000302824222130000030088888483000EB
:100363000018202020110E000000C02010F800000B
:1003730000070424243F240000F8088888080800A4
:100383000019212020110E0000E0108888180000B9
:10039300000F112020110E0000380808C83808008B
:1003A3000000003F0000000000708808088870000B
:1003B300001C222121221C0000E010080810E0008C
:1003C3000000312222110F00000000C0C000000015
:1003D300000000303000000000000080000000003A
:1003E3000000806000000000000080402010080032
:1003F30000010204081020004040404040404000FB
:1004030004040404040404000008102040800000D5
:100413000020100804020100007048080808F000DA
:100423000000003036010000C030C828E810E000AA
:100433000718272423140B000000C038E000000035
:10044300203C23020227382008F88888887000009F
:10045300203F202020110E00C03008080808380073
:10046300071820202010080008F808080810E000EA
:10047300203F202020100F0008F88888E80810008B
:10048300203F20202320180008F88888E80810005F
:10049300203F200003000000C03008080838000097
:1004A30007182020221E020008F808000008F80898
:1004B300203F210101213F20000808F8080800001F
:1004C3000020203F2020000000000808F808080052
:1004D300C08080807F00000008F888C028180800CA
:1004E300203F20012638200008F808000000000003
:1004F300203F20202020300008F8F800F8F80800FA
:10050300203F003F003F200008F830C00008F808F3
:10051300203F200007183F00E01008080810E00003
:100523000F10202020100F0008F808080808F0001A
:10053300203F210101010000E01008080810E0003D
:100543000F18242438504F0008F8888888887000D2
:10055300203F2000030C3020007088080808380072
:100563000038202121221C00180808F80808180068
:100573000000203F2000000008F808000008F808E9
:10058300001F202020201F000878880000C838089A
:10059300000007380E010000F80800F80008F80012
:1005A300033C0700073C03000818688080681808AC
:1005B30020302C03032C30200838C800C83808002A
:1005C3000000203F2000000010080808C838080079
:1005D3002038262120201800000000FE020202001D
:1005E3000000007F40404000000C30C000000000CD
:1005F300000000010638C00000020202FE000000F5
:10060300004040407F00000000000402020204009A
:1006130000000000000000000000000000000000D7
:1006230080808080808080800002020400000000BF
:1006330000000000000000000000808080800000B7
:100643000019242222223F2008F8008080000000A5
:10065300003F112020110E00000000808080000068
:10066300000E112020201100000000808088F80077
:10067300000E112020103F200000808080800000A9
:10068300001F222222221300008080F0888888180D
:100693000020203F20200000000080808080800018
:1006A300006B94949493600008F8008080800000AD
:1006B300203F210000203F20008098980000000088
:1006C3000020203F202000000000008098980000B8
:1006D30000C08080807F000008F8000080808000D8
:1006E300203F24022D302000000808F800000000FD
:1006F3000020203F202000008080808080808000B8
:10070300203F20003F20003F808000808080000049
:10071300203F210000203F200000808080800000D7
:10072300001F202020201F00808000808000000008
:1007330080FFA12020110E00000000808080800037
:10074300000E112020A0FF80808080008080800028
:1007530020203F2120000100000080808080800055
:100763000033242424241900008080E080800000CA
:100773000000001F20200000808000000080800017
:10078300001F202020103F20808080000080808078
:1007930000010E3008060100808000800080808008
:1007A3000F300C030C300F0000808000808080002D
:1007B3000020312E0E312000808080000080808058
:1007C30080818E7018060100008080808080800008
:1007D3000021302C2221300000000000807C020226
:1007E30000000000003F404000000000FF00000048
:1007F30000000000FF0000000002027C80000000F7
:100803000040403F00000000000601010202040412
:1008130000000000000000008868FF488822F22AD8
:10082300E622E00000000F000209040308080700A5
:1008330000000000000000001C04242425E62424FA
:1008430024041C0001010109090F01010101010038
:10085300000000000000000004242424FF00FF2403
:1008630024240400010101010F000F010101010013
:1008730000000000000000008282BAAAAAABAAAA64
:10088300BA8282000F00000E0A0A0A0E00080F0047
:100893000000000000000000121292D7B29E92974F
:1008A300929212000201000F04040404040F0000DA
:1008B30000000000000000007800FF0812FA4A4A16
:1008C3004AFA020000000F00080B0A0A0A0B08008C
:1008D3000000000000000000224400424242FE42A9
:1008E300424200000402090808080F08080808002B
:1008F300000000000000000020A424FF2420D24EAA
:100903004252DE000807040F09090B0A0A0A0B000A
:10091300000000000000000010AC4B320E88681F7E
:1009230068890A0009040004090004080004090096
:100933000000000000000000FC242424FF242424E1
:10094300FC000000030101010709090909080E0061
:1009530000000000000000009E12F29E48C4AB920B
:10096300AAC640000F080704000F0404040F000088
:100973000000000000000000005F515551FF515579
:10098300515F000009050105090105090105090079
:10099300000000000000000024A3FAA622F4535232
:1009A3005652F20001000F00010F050505050F0067
:1009B30000000000000000002244FE02FA02FE00D4
:1009C300FC00FF00040209040304090001080F00EE
:1009D300000000000000000011F2000024E42404E1
:1009E300FF040500000F04000407020003040E00C7
:1009F30000000000000000002010FC0318608106C6
:100A030080601C0000000F000804020102040800BB
:100A130000000000000000000000F888888888FFBC
:100A230088888888F800000000001F080808087FED
:100A3300888888889F80F00080828282828282E216
:100A4300A2928A8682808000000000000040807F9E
:100A53000000000000000000101010FF1090088834
:100A63008888FF88888808000444827F018080404A
:100A7300432C1028468180000010101010D030FF46
:100A830030D0121C1010000010080402010000FFF7
:080A930000000102040810003C
:10116500EF4E60157D087C07ED1DAA0470011C4A31
:0911750070F6EF1F70EA1E80E71E
:01117E00224E
:10117F008F08E5087006FD7FA612101EE508B40162
:09118F0007E4FD7FA712101E22E7
:10109C008F08E508700DFD7FC812101EE4FD7FA1BE
:1010AC0012101EE508B4010EE4FD7FC012101EE400
:0710BC00FD7FA012101E22AF
:08123E007F01AE071FEE70FAFC
:011246002285
:0F11DC00D295D29412123EC29512123EC29422A4
:0A122B00C295D29412123ED2952211
:0F11EB00D29512123ED29412123EC29402123EBC
:0210C300AD0777
:1010C500E4FCC294ED30E704D2958002C295121279
:1010D5003ED29412123EC294ED25E0FD0CBC08E20E
:0110E50022E8
:0D10110012101EE4FDFF12101EE4FD7F1002
:10101E00AB05AA071211DC7F781210C31211EBEB8D
:10102E0060047F408002E4FF1210C31211EBAF0286
:09103E001210C31211EB02122B77
:10110900A907ED24B0FFE4FD12101EE954F0C45400
:101119000F4410FFE4FD12101EE9540FFFE4FD0215
:02112900101E96
:1011C700E4FD7F8D12101EE4FD7F1412101EE4FD56
:0511D7007FAF02101EB5
:0E11FA00E4FD7F8D121017E4FD7FAE02101E83
:1010E600E4F9E924B0FFE4FD121011E4F5087D01EE
:1010F600E4FF12101E0508E508C3948040F009B904
:0211060008E0FF
:0111080022C4
:040B94008F0F8D1022
:100B9800E4F513E512C313FDF514E4F515F516E5B0
:100BA80012B408087517007518068029E512131382
:100BB80013541FFF7E00E512540760059000018062
:100BC80003900000E5822FFFE5833EFE7C00120DB6
:100BD800518E178F18EB24E0F513AD10AF0F1211DB
:100BE80009E4F515F516C3E5169518E5159517509A
:100BF80067E514FD7C00AE15AF16120D63ED4C7061
:100C08000FE51264086009AD100510AF0F12110945
:100C1800E512B4081075F006E513A42403F582E57F
:100C2800F034008013E512B4102E75F010E513A40B
:100C3800242BF582E5F03402F583E5822516F5824A
:100C4800E5833515F583E493FF7D0112101E051623
:080C5800E51670920515808E6F
:010C60002271
:041198008F31A905E5
:10119C007F017E00AD0119ED6009AD317C00120DAF
:0311AC005180F17E
:0111AF00221D
:080ED7008F248D258A268B274C
:100EDF00E4F52CF52DE529B40803752C02E4F52A69
:100EEF00E52AC395285069C3E528952A14FD7F0A82
:100EFF00121198AC26AD27CFCDCFCECCCE120D632D
:100F0F007C007D0A120D638D2BE52D7025E52814CD
:100F1F00FFE52AC39F501BE52B7014E529C313254A
:100F2F002C852AF0A42524FF8529127B2080187593
:100F3F002D01E529C313252C852AF0A42524FFE5CF
:100F4F002B2430FB852912AD25120B94052A809096
:010F5F00226F
:0A0FC8008F088D098B0A8A0B890C33
:100FD200E4F50EAB0AAA0BA90C850E8275830012EA
:100FE2000D24602AAF0E050E8F82758300120D2428
:100FF200FB850D12AD09AF08120B94E50DB4080480
:0E10020074068004E50DC3132508F50880C5AB
:0110100022BD
:060DB8008F088D098B0A73
:100DBE00E50B131313541FFF7E00E50B54077C0045
:100DCE0060047D0180027D00ED2FFFEC3EFEAD0B39
:100DDE007C00120D518E0E8F0FE4F50CF50DC3E550
:100DEE000D950FE50C950E5053E50BFD7C00AE0CEA
:100DFE00AF0D120D63ED4C7009AD090509AF081268
:100E0E001109E50BB410028005E50BB40C2E75F03C
:100E1E0020E50AA4241BF582E5F03408F583E5826B
:100E2E00250DF582E583350CF583E493FF7D0112E4
:0C0E3E00101E050DE50D70A6050C80A22D
:010E4A002285
:060F60008F198D1A8B1B96
:100F6600E4F520F521E51C131313541FFFE51C546B
:100F76000760047E0180027E00EF2EF51CE4F52258
:100F8600E522C3951C503AE522251AFDAF19121128
:100F960009E4F523E523C3951B5022AB1DAA1EA920
:100FA6001F0521E521AE207002052014F5828E83EF
:100FB600120D24FF7D0112101E052380D705228005
:010FC600BF6B
:010FC7002207
:100C6100C2927FC87E00121165D292E4FD7FAE125E
:100C71001011E4FD7F4012101EE4FD7F8112101E51
:100C8100E4FD7FCF12101EE4FD7FA112101EE4FDD2
:100C91007FC812101EE4FD7FA612101EE4FD7FA87E
:100CA10012101EE4FD7F3F12101EE4FD7FD31210CF
:100CB1001EE4FDFF12101EE4FD7FD512101EE4FD9F
:100CC1007F8012101EE4FD7FD912101EE4FD7FF11A
:100CD10012101EE4FD7FDA12101EE4FD7F121210C5
:100CE1001EE4FD7FDB12101EE4FD7F4012101EE4A6
:100CF100FD7F2012101EE4FD7F0212101EE4FD7F15
:100D01008D12101EE4FD7F1412101EE4FD7FA4124B
:100D1100101EE4FD7FA612101E1210E6E4FD7FAF47
:030D210002101E9F
:100E570002112BE493A3F8E493A34003F68001F275
:100E670008DFF48029E493A3F85407240CC8C3339C
:100E7700C4540F4420C8834004F456800146F6DF6B
:100E8700E4800B0102040810204080901247E47EA2
:100E9700019360BCA3FF543F30E509541FFEE49360
:100EA700A360010ECF54C025E060A840B8E493A327
:100EB700FAE493A3F8E493A3C8C582C8CAC583CA52
:100EC700F0A3C8C582C8CAC583CADFE9DEE780BE0A
:01124E00009F
:100D2400BB010CE58229F582E5833AF583E0225084
:100D340006E92582F8E622BBFE06E92582F8E222CE
:0D0D4400E58229F582E5833AF583E49322E8
:100D5100EF8DF0A4A8F0CF8CF0A428CE8DF0A42EB6
:020D6100FE2270
:100D6300BC000BBE0029EF8DF084FFADF022E4CC74
:100D7300F875F008EF2FFFEE33FEEC33FCEE9DEC3D
:100D8300984005FCEE9DFE0FD5F0E9E4CEFD22ED83
:100D9300F8F5F0EE8420D21CFEADF075F008EF2FCD
:100DA300FFED33FD4007985006D5F0F222C398FDBE
:050DB3000FD5F0EA225B
:00000001FF
