:030000000212DB0E
:0C12DB00787FE4F6D8FD758153021322E1
:1015E70032333231313333360032333231313239FB
:1015F700300032333231313330310068656C6C6F13
:0116070000E2
:07175D0002500000015200E0
:10164100AF8CEFFEAD8AEDFFAC06E4120DABE4FB0F
:08165100FA797A7844120C9C2E
:01165900226E
:0D1708005389F0438901C28CC28DC2A92211
:0A172E00E4F58CF58AC28DD28C22FE
:03176500C28C2211
:08174200AF8CEFFEAD8AEDFF54
:01174A00227C
:100EE60075210C7B09E4FD7F1C12124875210C7BD1
:100EF6000AE4FD7F2A12124875210C7B0BE4FD7F64
:100F06003812124875210C7B0CE4FD7F44121248FE
:100F160075210C7B0DE4FD7F5012124875210C7B68
:100F26000EE4FD7F5C12124875210C7B0FE4FD7FF9
:100F36006812124875210CE4FB7D02FF12124875F7
:100F4600210C7B017D027F0E12124875210C7B025B
:100F56007D027F1C1212487BFF7A1579E7752308FC
:100F66007D027F3C12145875210C7B037D04E4FF3F
:100F760012124875210C7B047D047F0E12124875EF
:100F8600210C7B057D047F1C1212487BFF7A1579A4
:100F9600F07523087D047F3C12145875210C7B06DE
:100FA6007D06E4FF12124875210C7B077D067F0E35
:100FB60012124875210C7B087D067F1C1212487B95
:100FC600FF7A1579F97523087D067F3C1214587F40
:090FD600D07E071216270215A2B5
:0C172200D2967FD07E07121627C29622B6
:10168B00E4F592F59153B2FB53B1FB121708D2B2AA
:07169B00C296C2970216CCB3
:10152F00E4F51EF51F20B2187F14FE12162720B205
:10153F0014E51F451E700EF51E751F01FE7F01225B
:08154F00E4F51EF51FE4FEFFA8
:011557002271
:09174B008F328E318D308C2F227B
:100FDF00E4F519F518F517F516F51DF51CF51BF5C4
:100FEF001A1217227F327E001216B7E4FF12150372
:100FFF008E088F091216088F0D8E0C8D0B8C0A7FA1
:10100F001E7E00121627E4FF1215038E088F091299
:10101F0016088F118E108D0F8C0EAB11AA10A90F01
:10102F00A80EAF0DAE0CAD0BAC0A120A9E7B7F7AE9
:10103F006A79BC783E120B93AB11AA10A90FA80EB8
:10104F00120AA28F158E148D138C121217227F3253
:10105F007E001216B712172EE4FF1215038E088F9B
:10106F0009121608AB15AA14A913A812120A9E1278
:10107F0017157B0A7AD779A3783C120D39501112C4
:10108F001742E4FCFD7B607AEAF9F8120ED050C8E3
:10109F001217651216418F1D8E1C8D1B8C1A8F19FE
:0910AF008E188D178C1602174BE8
:1014D70012168B121185E4FF12165AE4FF121558E3
:1014E700120EE612152FEF4E60F97BFF7A1679027E
:0C14F7007523107D027F3C12145880E722
:100003000000000000000000002F000000000700B7
:10001300070000147F147F1400242A7F2A12006231
:1000230064081323003649552250000005030000DD
:1000330000001C224100000041221C000014083E65
:1000430008140008083E0808000000A0600000082B
:10005300080808080000606000000020100804027F
:10006300003E5149453E0000427F4000004261513D
:100073004946002141454B31001814127F100027D7
:1000830045454539003C4A4949300001710905039A
:1000930000364949493600064949291E00003636CB
:1000A300000000005636000000081422410000142E
:1000B300141414140000412214080002015109060B
:1000C30000324959513E007C1211127C007F49498C
:1000D3004936003E41414122007F4141221C007FBD
:1000E30049494941007F09090901003E4149497ACB
:1000F300007F0808087F0000417F41000020404145
:100103003F01007F08142241007F40404040007FB0
:10011300020C027F007F0408107F003E4141413EF4
:10012300007F09090906003E4151215E007F09193C
:1001330029460046494949310001017F0101003F39
:100143004040403F001F2040201F003F4038403FB9
:10015300006314081463000708700807006151491D
:10016300454300007F41410000552A552A550000B0
:1001730041417F000004020102040040404040402E
:10018300000001020400002054545478007F4844C6
:10019300443800384444442000384444487F0038FD
:1001A3005454541800087E0901020018A4A4A47C26
:1001B300007F080404780000447D400000408084F0
:1001C3007D00007F102844000000417F4000007C38
:1001D30004180478007C0804047800384444443844
:1001E30000FC242424180018242418FC007C080490
:1001F300040800485454542000043F444020003C69
:100203004040207C001C2040201C003C4030403CEF
:10021300004428102844001CA0A0A07C004464547F
:100223004C441414141414140000000000000000C3
:100233000000000000000000000000F800000000C3
:10024300000000333000000000100C06100C060004
:10025300000000000000000040C07840C07840006B
:10026300043F04043F040400007088FC08300000CD
:10027300001820FF211E0000F008F000E018000025
:1002830000211C031E211E0000F0088870000000DE
:100293001E2123241927211010160E000000000030
:1002A3000000000000000000000000E0180402004D
:1002B300000000071820400000020418E0000000BE
:1002C3000040201807000000404080F080404000BC
:1002D3000202010F01020200000000F00000000012
:1002E3000101011F010101000000000000000000E6
:1002F30080B070000000000000000000000000005B
:1003030000010101010101010000000000000000E3
:10031300003030000000000000000000806018047E
:10032300006018060100000000E010080810E0005B
:10033300000F102020100F00001010F80000000024
:100343000020203F2020000000700808088870006B
:1003530000302824222130000030088888483000EB
:100363000018202020110E000000C02010F800000B
:1003730000070424243F240000F8088888080800A4
:100383000019212020110E0000E0108888180000B9
:10039300000F112020110E0000380808C83808008B
:1003A3000000003F0000000000708808088870000B
:1003B300001C222121221C0000E010080810E0008C
:1003C3000000312222110F00000000C0C000000015
:1003D300000000303000000000000080000000003A
:1003E3000000806000000000000080402010080032
:1003F30000010204081020004040404040404000FB
:1004030004040404040404000008102040800000D5
:100413000020100804020100007048080808F000DA
:100423000000003036010000C030C828E810E000AA
:100433000718272423140B000000C038E000000035
:10044300203C23020227382008F88888887000009F
:10045300203F202020110E00C03008080808380073
:10046300071820202010080008F808080810E000EA
:10047300203F202020100F0008F88888E80810008B
:10048300203F20202320180008F88888E80810005F
:10049300203F200003000000C03008080838000097
:1004A30007182020221E020008F808000008F80898
:1004B300203F210101213F20000808F8080800001F
:1004C3000020203F2020000000000808F808080052
:1004D300C08080807F00000008F888C028180800CA
:1004E300203F20012638200008F808000000000003
:1004F300203F20202020300008F8F800F8F80800FA
:10050300203F003F003F200008F830C00008F808F3
:10051300203F200007183F00E01008080810E00003
:100523000F10202020100F0008F808080808F0001A
:10053300203F210101010000E01008080810E0003D
:100543000F18242438504F0008F8888888887000D2
:10055300203F2000030C3020007088080808380072
:100563000038202121221C00180808F80808180068
:100573000000203F2000000008F808000008F808E9
:10058300001F202020201F000878880000C838089A
:10059300000007380E010000F80800F80008F80012
:1005A300033C0700073C03000818688080681808AC
:1005B30020302C03032C30200838C800C83808002A
:1005C3000000203F2000000010080808C838080079
:1005D3002038262120201800000000FE020202001D
:1005E3000000007F40404000000C30C000000000CD
:1005F300000000010638C00000020202FE000000F5
:10060300004040407F00000000000402020204009A
:1006130000000000000000000000000000000000D7
:1006230080808080808080800002020400000000BF
:1006330000000000000000000000808080800000B7
:100643000019242222223F2008F8008080000000A5
:10065300003F112020110E00000000808080000068
:10066300000E112020201100000000808088F80077
:10067300000E112020103F200000808080800000A9
:10068300001F222222221300008080F0888888180D
:100693000020203F20200000000080808080800018
:1006A300006B94949493600008F8008080800000AD
:1006B300203F210000203F20008098980000000088
:1006C3000020203F202000000000008098980000B8
:1006D30000C08080807F000008F8000080808000D8
:1006E300203F24022D302000000808F800000000FD
:1006F3000020203F202000008080808080808000B8
:10070300203F20003F20003F808000808080000049
:10071300203F210000203F200000808080800000D7
:10072300001F202020201F00808000808000000008
:1007330080FFA12020110E00000000808080800037
:10074300000E112020A0FF80808080008080800028
:1007530020203F2120000100000080808080800055
:100763000033242424241900008080E080800000CA
:100773000000001F20200000808000000080800017
:10078300001F202020103F20808080000080808078
:1007930000010E3008060100808000800080808008
:1007A3000F300C030C300F0000808000808080002D
:1007B3000020312E0E312000808080000080808058
:1007C30080818E7018060100008080808080800008
:1007D3000021302C2221300000000000807C020226
:1007E30000000000003F404000000000FF00000048
:1007F30000000000FF0000000002027C80000000F7
:100803000040403F00000000000601010202040412
:1008130000000000000000008868FF488822F22AD8
:10082300E622E00000000F000209040308080700A5
:1008330000000000000000001C04242425E62424FA
:1008430024041C0001010109090F01010101010038
:10085300000000000000000004242424FF00FF2403
:1008630024240400010101010F000F010101010013
:1008730000000000000000008282BAAAAAABAAAA64
:10088300BA8282000F00000E0A0A0A0E00080F0047
:100893000000000000000000121292D7B29E92974F
:1008A300929212000201000F04040404040F0000DA
:1008B30000000000000000007800FF0812FA4A4A16
:1008C3004AFA020000000F00080B0A0A0A0B08008C
:1008D3000000000000000000224400424242FE42A9
:1008E300424200000402090808080F08080808002B
:1008F300000000000000000020A424FF2420D24EAA
:100903004252DE000807040F09090B0A0A0A0B000A
:10091300000000000000000010AC4B320E88681F7E
:1009230068890A0009040004090004080004090096
:100933000000000000000000FC242424FF242424E1
:10094300FC000000030101010709090909080E0061
:1009530000000000000000009E12F29E48C4AB920B
:10096300AAC640000F080704000F0404040F000088
:100973000000000000000000005F515551FF515579
:10098300515F000009050105090105090105090079
:10099300000000000000000024A3FAA622F4535232
:1009A3005652F20001000F00010F050505050F0067
:1009B30000000000000000002244FE02FA02FE00D4
:1009C300FC00FF00040209040304090001080F00EE
:1009D300000000000000000011F2000024E42404E1
:1009E300FF040500000F04000407020003040E00C7
:1009F30000000000000000002010FC0318608106C6
:100A030080601C0000000F000804020102040800BB
:100A130000000000000000000000F888888888FFBC
:100A230088888888F800000000001F080808087FED
:100A3300888888889F80F00080828282828282E216
:100A4300A2928A8682808000000000000040807F9E
:100A53000000000000000000101010FF1090088834
:100A63008888FF88888808000444827F018080404A
:100A7300432C1028468180000010101010D030FF46
:100A830030D0121C1010000010080402010000FFF7
:080A930000000102040810003C
:10162700EF4E60157D087C07ED1DAA0470011C4A6A
:0916370070F6EF1F70EA1E80E757
:011640002287
:10165A008F1EE51E7006FD7FA61214AEE51EB401AC
:09166A0007E4FD7FA71214AE2273
:101558008F1EE51E700DFD7FC81214AEE4FD7FA13D
:101568001214AEE51EB4010EE4FD7FC01214AEE401
:07157800FD7FA01214AE225A
:081754007F01AE071FEE70FAE1
:01175C00226A
:0F16DC00D295D294121754C295121754C2942269
:0A173800C295D294121754D29522E4
:0F16EB00D295121754D294121754C29402175466
:02157F00AD07B6
:10158100E4FCC294ED30E704D2958002C2951217B3
:1015910054D294121754C294ED25E0FD0CBC08E21C
:0115A1002227
:0D14A1001214AEE4FDFF1214AEE4FD7F1046
:1014AE00AB05AA071216DC7F7812157F1216EBEB2E
:1014BE0060047F408002E4FF12157F1216EBAF022C
:0914CE0012157F1216EB0217380B
:1015C500A907ED24B0FFE4FD1214AEE954F0C454AC
:1015D5000F4410FFE4FD1214AEE9540FFFE4FD02C1
:0215E50014AE42
:1016A200E4FD7F8D1214AEE4FD7F141214AEE4FD4E
:0516B2007FAF0214AE41
:0E16FA00E4FD7F8D1214A7E4FD7FAE0214AE56
:1015A200E4F9E924B0FFE4FD1214A1E4F51E7D0183
:1015B200E4FF1214AE051EE51EC3948040F009B983
:0215C20008E03F
:0115C4002204
:0410B8008F258D26CD
:1010BC00E4F529E528C313FDF52AE4F52BF52CE519
:1010CC0028B40808752D00752E068029E528131301
:1010DC0013541FFF7E00E528540760059000018023
:1010EC0003900000E5822FFFE5833EFE7C00120E8C
:1010FC005B8E2D8F2EEB24E0F529AD26AF25121536
:10110C00C5E4F52BF52CC3E52C952EE52B952D5030
:10111C0067E52AFD7C00AE2BAF2C120E6DED4C70EA
:10112C000FE52864086009AD260526AF251215C504
:10113C00E528B4081075F006E529A42403F582E52A
:10114C00F034008013E528B4102E75F010E529A4B6
:10115C00242BF582E5F03402F583E582252CF5820B
:10116C00E583352BF583E493FF7D011214AE052C3A
:08117C00E52C7092052B808E1A
:011184002248
:041673008F53A905E3
:101677007F017E00AD0119ED6009AD537C00120EAC
:031687005B80F194
:01168A00223D
:081367008F468D478A488B492F
:10136F00E4F54EF54FE54BB40803754E02E4F54C2A
:10137F00E54CC3954A5069C3E54A954C14FD7F0A65
:10138F00121673AC48AD49CFCDCFCECCCE120E6D69
:10139F007C007D0A120E6D8D4DE54F7025E54A14C8
:1013AF00FFE54CC39F501BE54D7014E54BC3132550
:1013BF004E854CF0A42546FF854B287B2080187561
:1013CF004F01E54BC313254E854CF0A42546FFE591
:1013DF004D2430FB854B28AD471210B8054C80903B
:0113EF0022DB
:0A1458008F1E8D1F8B208A21892230
:10146200E4F524AB20AA21A92285248275830012E7
:101472000E2E602AAF2405248F82758300120E2E51
:10148200FB852328AD1FAF1E1210B8E523B4080454
:0E14920074068004E523C313251EF51E80C5D5
:0114A0002229
:061248008F1E8D1F8B209C
:10124E00E521131313541FFF7E00E52154077C0084
:10125E0060047D0180027D00ED2FFFEC3EFEAD218E
:10126E007C00120E5B8E248F25E4F522F523C3E558
:10127E00239525E52295245053E521FD7C00AE22D1
:10128E00AF23120E6DED4C7009AD1F051FAF1E1270
:10129E0015C5E521B410028005E521B40C2E75F0BC
:1012AE0020E520A4241BF582E5F03408F583E582C1
:1012BE002523F582E5833522F583E493FF7D011224
:0C12CE0014AE0523E52370A6052280A2C3
:0112DA0022F1
:0613F0008F3B8D3C8B3D9C
:1013F600E4F542F543E53E131313541FFFE53E544F
:101406000760047E0180027E00EF2EF53EE4F5447F
:10141600E544C3953E503AE544253CFDAF3B1215E5
:10142600C5E4F545E545C3953D5022AB3FAA40A925
:10143600410543E543AE427002054214F5828E83B0
:10144600120E2EFF7D011214AE054580D70544808D
:01145600BFD6
:011457002272
:10118500C2927FC87E00121627D292E4FD7FAE126E
:1011950014A1E4FD7F401214AEE4FD7F811214AE6C
:1011A500E4FD7FCF1214AEE4FD7FA11214AEE4FD81
:1011B5007FC81214AEE4FD7FA61214AEE4FD7FA82D
:1011C5001214AEE4FD7F3F1214AEE4FD7FD312147A
:1011D500AEE4FDFF1214AEE4FD7FD51214AEE4FDBE
:1011E5007F801214AEE4FD7FD91214AEE4FD7FF1C9
:1011F5001214AEE4FD7FDA1214AEE4FD7F12121470
:10120500AEE4FD7FDB1214AEE4FD7F401214AEE4C4
:10121500FD7F201214AEE4FD7F021214AEE4FD7FC3
:101225008D1214AEE4FD7F141214AEE4FD7FA412FA
:1012350014AEE4FD7FA61214AE1215A2E4FD7FAF35
:031245000214AEE2
:1016B700EF1FAC0670011E4C600A0000000000001E
:0516C700000080EC2290
:1016CC0075BC804392014391017F027E0002162774
:10150300EF54074480F5BC7F027E001216B743BC3C
:1015130008E5BC30E4FB53BCEFAFBDEF75F004A4AA
:0C152300FFAEF0E5BE5403FDEF4DFF22CB
:10160800AD07AC06E4120DAB7B337A3379537840DF
:0F161800120B937B007AC0797F7844120C9C22CE
:100A9B00020E19E86480F8E933E83360110460F062
:100AAB00ED33EC337009E8FCE9FDEAFEEBFF2204C1
:100ABB0060DED3EB9FEA9EE99DE8C2E78CF0C2F7BC
:100ACB0095F0400CE8CCF8E9CDF9EACEFAEBCFFB88
:100ADB00120DE485D0F05804700320D5B3E80470F0
:100AEB00075002B2D5020E2392D5EC0460F7E4CC8A
:100AFB00C0E0C398F8603B94186008400DD0E0FB51
:100B0B00020DFBE4FBFAC9FC8028E830E406E4C9DB
:100B1B00FBE4CAFCE830E305E4C9CACBFCE85407A4
:100B2B006010F8C3E913F9EA13FAEB13FBEC13FCAF
:100B3B00D8F130F52FC3E49CFCEF9BFFEE9AFEED52
:100B4B0099FDD0E0FBEF4E4D4C701222DB03020EF1
:100B5B0020EC2CFCEF33FFEE33FEED33FDED30E7F5
:100B6B00EB020DFBEF2BFFEE3AFEED39FDD0E0FB78
:100B7B0050130BBB0003020E23ED13FDEE13FEEF20
:080B8B0013FFEC13FC020DFB4B
:100B9300EC4D6011E8497017ED33EC3304600DE45C
:100BA300FCFFFEFD22E933E8330470F8020E19124C
:100BB3000DE458046009E4CC24815006285009024E
:100BC3000E23284003020E20C0E0EB4A7044B98094
:100BD30006D0E0FB020E0FEF4E701CBD8008EBFF4A
:100BE300EAFEE9FD80EBE98DF0A4FEE5F0020C7C62
:100BF300E9CDF9EAFEEBFFEF89F0A4FCE5F0CE893D
:100C0300F0A42EFFE435F0CD89F0A42DFEE435F0F9
:100C13008067EF4E7005BD80D780C3EF8BF0A4AC27
:100C2300F0EE8BF0A42CFCE435F0F8EF8AF0A42C62
:100C3300E5F038FCE433CB8DF0A42CFCE5F03BF875
:100C4300EE8AF0A42CFCE5F038F8E433CF89F0A465
:100C53002CFCE5F038CF3400CE89F0A42FFFE5F06B
:100C63003EFEE433C98DF0A42EFEE5F039CD8AF0C3
:100C7300A42FFFE5F03EFEE43DFD33D0E0FB50073B
:100C83000BBB000F020E23EC2CFCEF33FFEE33FE05
:060C9300ED33FD020DFB34
:100C9900020E23EC5D046005E859047003020E1985
:100CA900120DE4580460F6EC4860F2EC7004FDFEA5
:100CB900FF22C860DB2481C85009C398600250062E
:100CC900020E209850CAF582E9294B4A7005AB8279
:100CD900020E0F75F0007C1A7880C3EF9BEE9AED37
:100CE90099400DC3EF9BFFEE9AFEED99FDE842F0A6
:100CF900DC23ACF0D0E0FFD0E0FED0E0FDAB8220F9
:100D0900E7101BEB60BAEC2CFCEF33FFEE33FEED82
:100D190033FD020DFBE803F830E705C0F075F0007C
:100D2900EF2FFFEE33FEED33FD40B830E7C280AA66
:100D390074F8CC6480CCC86480C8F582046043C36D
:100D4900EB9FF5F0EA9E42F0E99D42F0E89C45F000
:100D590060305018E5825FFFE582F42B5582FB5025
:100D6900210ABA001D09B90019088016E5825BFB42
:100D7900E582F42F5582FF50090EBE00050DBD0016
:100D8900010CC3EB9FF5F0EA9E42F0E99D42F0E8C1
:0D0D99009C45F06007CC4820E701B3EC2238
:100DA60075F020800E75F010800575F0087D007EC8
:100DB600007F003392D530D503120EC2EC334010BB
:100DC600EF33FFEE33FEED33FDEC33FCD5F0ED22D1
:0E0DD600E5F0247EA2D513CC92E7CDCEFF220D
:0D171500ED33EC3360065004EC6480FC22E0
:100DE400E9D2E7C933E833F892D5EDD2E7CD33EC55
:070DF40033FC5002B2D522CE
:100DFB00EC30E7100FBF000C0EBE00080DBD000459
:100E0B000BEB6014A2D5EB13FCED92E7FD2274FF04
:100E1B00FCFDFEFF22E480F8A2D574FF13FC7D805D
:030E2B00E480EF71
:1012E7000214D7E493A3F8E493A34003F68001F232
:1012F70008DFF48029E493A3F85407240CC8C33308
:10130700C4540F4420C8834004F456800146F6DFD6
:10131700E4800B010204081020408090175DE47EF2
:10132700019360BCA3FF543F30E509541FFEE493CB
:10133700A360010ECF54C025E060A840B8E493A392
:10134700FAE493A3F8E493A3C8C582C8CAC583CABD
:10135700F0A3C8C582C8CAC583CADFE9DEE780BE75
:011764000084
:100E2E00BB010CE58229F582E5833AF583E0225079
:100E3E0006E92582F8E622BBFE06E92582F8E222C3
:0D0E4E00E58229F582E5833AF583E49322DD
:100E5B00EF8DF0A4A8F0CF8CF0A428CE8DF0A42EAB
:020E6B00FE2265
:100E6D00BC000BBE0029EF8DF084FFADF022E4CC69
:100E7D00F875F008EF2FFFEE33FEEC33FCEE9DEC32
:100E8D00984005FCEE9DFE0FD5F0E9E4CEFD22ED78
:100E9D00F8F5F0EE8420D21CFEADF075F008EF2FC2
:100EAD00FFED33FD4007985006D5F0F222C398FDB3
:050EBD000FD5F0EA2250
:0E0EC200C3E49FFFE49EFEE49DFDE49CFC2241
:100ED000EB9FF5F0EA9E42F0E99D42F0EC6480C899
:060EE00064809845F02239
:00000001FF
